{
  "_format": "hh-sol-artifact-1",
  "contractName": "BlockNumber",
  "sourceName": "contracts/BlockNumber.sol",
  "abi": [
    {
      "inputs": [],
      "name": "blockNumber",
      "outputs": [
        {
          "internalType": "uint256",
          "name": "",
          "type": "uint256"
        },
        {
          "internalType": "uint256",
          "name": "",
          "type": "uint256"
        }
      ],
      "stateMutability": "view",
      "type": "function"
    }
  ],
  "bytecode": "0x608060405234801561001057600080fd5b5060c78061001f6000396000f3fe6080604052348015600f57600080fd5b506004361060285760003560e01c806357e871e714602d575b600080fd5b60336048565b604051603f929190606c565b60405180910390f35b6000804342915091509091565b6000819050919050565b6066816055565b82525050565b6000604082019050607f6000830185605f565b608a6020830184605f565b939250505056fea26469706673582212208a90f34b7904c526901c53b1061350143033329d1cf1d5fa66d72cbe2c5c906964736f6c63430008100033",
  "linkReferences": {},
  "deployedLinkReferences": {}
}