{
  "_format": "hh-sol-artifact-1",
  "contractName": "TokenDistributor",
  "sourceName": "contracts/TokenDistributor.sol",
  "abi": [
    {
      "inputs": [
        {
          "internalType": "contract IERC20VotesUpgradeable",
          "name": "_token",
          "type": "address"
        },
        {
          "internalType": "address payable",
          "name": "_sweepReceiver",
          "type": "address"
        },
        {
          "internalType": "address",
          "name": "_owner",
          "type": "address"
        },
        {
          "internalType": "uint256",
          "name": "_claimPeriodStart",
          "type": "uint256"
        },
        {
          "internalType": "uint256",
          "name": "_claimPeriodEnd",
          "type": "uint256"
        },
        {
          "internalType": "address",
          "name": "delegateTo",
          "type": "address"
        }
      ],
      "stateMutability": "nonpayable",
      "type": "constructor"
    },
    {
      "anonymous": false,
      "inputs": [
        {
          "indexed": true,
          "internalType": "address",
          "name": "recipient",
          "type": "address"
        },
        {
          "indexed": false,
          "internalType": "uint256",
          "name": "amount",
          "type": "uint256"
        }
      ],
      "name": "CanClaim",
      "type": "event"
    },
    {
      "anonymous": false,
      "inputs": [
        {
          "indexed": true,
          "internalType": "address",
          "name": "recipient",
          "type": "address"
        },
        {
          "indexed": false,
          "internalType": "uint256",
          "name": "amount",
          "type": "uint256"
        }
      ],
      "name": "HasClaimed",
      "type": "event"
    },
    {
      "anonymous": false,
      "inputs": [
        {
          "indexed": true,
          "internalType": "address",
          "name": "previousOwner",
          "type": "address"
        },
        {
          "indexed": true,
          "internalType": "address",
          "name": "newOwner",
          "type": "address"
        }
      ],
      "name": "OwnershipTransferred",
      "type": "event"
    },
    {
      "anonymous": false,
      "inputs": [
        {
          "indexed": true,
          "internalType": "address",
          "name": "newSweepReceiver",
          "type": "address"
        }
      ],
      "name": "SweepReceiverSet",
      "type": "event"
    },
    {
      "anonymous": false,
      "inputs": [
        {
          "indexed": false,
          "internalType": "uint256",
          "name": "amount",
          "type": "uint256"
        }
      ],
      "name": "Swept",
      "type": "event"
    },
    {
      "anonymous": false,
      "inputs": [
        {
          "indexed": true,
          "internalType": "address",
          "name": "recipient",
          "type": "address"
        },
        {
          "indexed": false,
          "internalType": "uint256",
          "name": "amount",
          "type": "uint256"
        }
      ],
      "name": "Withdrawal",
      "type": "event"
    },
    {
      "inputs": [],
      "name": "claim",
      "outputs": [],
      "stateMutability": "nonpayable",
      "type": "function"
    },
    {
      "inputs": [
        {
          "internalType": "address",
          "name": "delegatee",
          "type": "address"
        },
        {
          "internalType": "uint256",
          "name": "expiry",
          "type": "uint256"
        },
        {
          "internalType": "uint8",
          "name": "v",
          "type": "uint8"
        },
        {
          "internalType": "bytes32",
          "name": "r",
          "type": "bytes32"
        },
        {
          "internalType": "bytes32",
          "name": "s",
          "type": "bytes32"
        }
      ],
      "name": "claimAndDelegate",
      "outputs": [],
      "stateMutability": "nonpayable",
      "type": "function"
    },
    {
      "inputs": [],
      "name": "claimPeriodEnd",
      "outputs": [
        {
          "internalType": "uint256",
          "name": "",
          "type": "uint256"
        }
      ],
      "stateMutability": "view",
      "type": "function"
    },
    {
      "inputs": [],
      "name": "claimPeriodStart",
      "outputs": [
        {
          "internalType": "uint256",
          "name": "",
          "type": "uint256"
        }
      ],
      "stateMutability": "view",
      "type": "function"
    },
    {
      "inputs": [
        {
          "internalType": "address",
          "name": "",
          "type": "address"
        }
      ],
      "name": "claimableTokens",
      "outputs": [
        {
          "internalType": "uint256",
          "name": "",
          "type": "uint256"
        }
      ],
      "stateMutability": "view",
      "type": "function"
    },
    {
      "inputs": [],
      "name": "owner",
      "outputs": [
        {
          "internalType": "address",
          "name": "",
          "type": "address"
        }
      ],
      "stateMutability": "view",
      "type": "function"
    },
    {
      "inputs": [],
      "name": "renounceOwnership",
      "outputs": [],
      "stateMutability": "nonpayable",
      "type": "function"
    },
    {
      "inputs": [
        {
          "internalType": "address[]",
          "name": "_recipients",
          "type": "address[]"
        },
        {
          "internalType": "uint256[]",
          "name": "_claimableAmount",
          "type": "uint256[]"
        }
      ],
      "name": "setRecipients",
      "outputs": [],
      "stateMutability": "nonpayable",
      "type": "function"
    },
    {
      "inputs": [
        {
          "internalType": "address payable",
          "name": "_sweepReceiver",
          "type": "address"
        }
      ],
      "name": "setSweepReciever",
      "outputs": [],
      "stateMutability": "nonpayable",
      "type": "function"
    },
    {
      "inputs": [],
      "name": "sweep",
      "outputs": [],
      "stateMutability": "nonpayable",
      "type": "function"
    },
    {
      "inputs": [],
      "name": "sweepReceiver",
      "outputs": [
        {
          "internalType": "address payable",
          "name": "",
          "type": "address"
        }
      ],
      "stateMutability": "view",
      "type": "function"
    },
    {
      "inputs": [],
      "name": "token",
      "outputs": [
        {
          "internalType": "contract IERC20VotesUpgradeable",
          "name": "",
          "type": "address"
        }
      ],
      "stateMutability": "view",
      "type": "function"
    },
    {
      "inputs": [],
      "name": "totalClaimable",
      "outputs": [
        {
          "internalType": "uint256",
          "name": "",
          "type": "uint256"
        }
      ],
      "stateMutability": "view",
      "type": "function"
    },
    {
      "inputs": [
        {
          "internalType": "address",
          "name": "newOwner",
          "type": "address"
        }
      ],
      "name": "transferOwnership",
      "outputs": [],
      "stateMutability": "nonpayable",
      "type": "function"
    },
    {
      "inputs": [
        {
          "internalType": "uint256",
          "name": "amount",
          "type": "uint256"
        }
      ],
      "name": "withdraw",
      "outputs": [],
      "stateMutability": "nonpayable",
      "type": "function"
    }
  ],
  "bytecode": "0x60e06040523480156200001157600080fd5b5060405162002cbd38038062002cbd83398181016040528101906200003791906200067e565b620000576200004b6200038a60201b60201c565b6200039260201b60201c565b600073ffffffffffffffffffffffffffffffffffffffff168673ffffffffffffffffffffffffffffffffffffffff1603620000c9576040517f08c379a0000000000000000000000000000000000000000000000000000000008152600401620000c090620007a1565b60405180910390fd5b600073ffffffffffffffffffffffffffffffffffffffff168573ffffffffffffffffffffffffffffffffffffffff16036200013b576040517f08c379a0000000000000000000000000000000000000000000000000000000008152600401620001329062000839565b60405180910390fd5b600073ffffffffffffffffffffffffffffffffffffffff168473ffffffffffffffffffffffffffffffffffffffff1603620001ad576040517f08c379a0000000000000000000000000000000000000000000000000000000008152600401620001a490620008d1565b60405180910390fd5b438311620001f2576040517f08c379a0000000000000000000000000000000000000000000000000000000008152600401620001e99062000969565b60405180910390fd5b82821162000237576040517f08c379a00000000000000000000000000000000000000000000000000000000081526004016200022e9062000a01565b60405180910390fd5b600073ffffffffffffffffffffffffffffffffffffffff168173ffffffffffffffffffffffffffffffffffffffff1603620002a9576040517f08c379a0000000000000000000000000000000000000000000000000000000008152600401620002a09062000a99565b60405180910390fd5b8573ffffffffffffffffffffffffffffffffffffffff16635c19a95c826040518263ffffffff1660e01b8152600401620002e4919062000acc565b600060405180830381600087803b158015620002ff57600080fd5b505af115801562000314573d6000803e3d6000fd5b505050508573ffffffffffffffffffffffffffffffffffffffff1660808173ffffffffffffffffffffffffffffffffffffffff16815250506200035d856200045660201b60201c565b8260a081815250508160c081815250506200037e846200039260201b60201c565b50505050505062000b81565b600033905090565b60008060009054906101000a900473ffffffffffffffffffffffffffffffffffffffff169050816000806101000a81548173ffffffffffffffffffffffffffffffffffffffff021916908373ffffffffffffffffffffffffffffffffffffffff1602179055508173ffffffffffffffffffffffffffffffffffffffff168173ffffffffffffffffffffffffffffffffffffffff167f8be0079c531659141344cd1fd0a4f28419497f9722a3daafe3b4186f6b6457e060405160405180910390a35050565b600073ffffffffffffffffffffffffffffffffffffffff168173ffffffffffffffffffffffffffffffffffffffff1603620004c8576040517f08c379a0000000000000000000000000000000000000000000000000000000008152600401620004bf9062000b5f565b60405180910390fd5b80600160006101000a81548173ffffffffffffffffffffffffffffffffffffffff021916908373ffffffffffffffffffffffffffffffffffffffff1602179055508073ffffffffffffffffffffffffffffffffffffffff167fbea8251f76064f657f2a744bf08a1b5700486d06eb94922162892eb022d95ef660405160405180910390a250565b600080fd5b600073ffffffffffffffffffffffffffffffffffffffff82169050919050565b6000620005818262000554565b9050919050565b6000620005958262000574565b9050919050565b620005a78162000588565b8114620005b357600080fd5b50565b600081519050620005c7816200059c565b92915050565b6000620005da8262000554565b9050919050565b620005ec81620005cd565b8114620005f857600080fd5b50565b6000815190506200060c81620005e1565b92915050565b6200061d8162000574565b81146200062957600080fd5b50565b6000815190506200063d8162000612565b92915050565b6000819050919050565b620006588162000643565b81146200066457600080fd5b50565b60008151905062000678816200064d565b92915050565b60008060008060008060c087890312156200069e576200069d6200054f565b5b6000620006ae89828a01620005b6565b9650506020620006c189828a01620005fb565b9550506040620006d489828a016200062c565b9450506060620006e789828a0162000667565b9350506080620006fa89828a0162000667565b92505060a06200070d89828a016200062c565b9150509295509295509295565b600082825260208201905092915050565b7f546f6b656e4469737472696275746f723a207a65726f20746f6b656e2061646460008201527f7265737300000000000000000000000000000000000000000000000000000000602082015250565b6000620007896024836200071a565b915062000796826200072b565b604082019050919050565b60006020820190508181036000830152620007bc816200077a565b9050919050565b7f546f6b656e4469737472696275746f723a207a65726f2073776565702061646460008201527f7265737300000000000000000000000000000000000000000000000000000000602082015250565b6000620008216024836200071a565b91506200082e82620007c3565b604082019050919050565b60006020820190508181036000830152620008548162000812565b9050919050565b7f546f6b656e4469737472696275746f723a207a65726f206f776e65722061646460008201527f7265737300000000000000000000000000000000000000000000000000000000602082015250565b6000620008b96024836200071a565b9150620008c6826200085b565b604082019050919050565b60006020820190508181036000830152620008ec81620008aa565b9050919050565b7f546f6b656e4469737472696275746f723a2073746172742073686f756c64206260008201527f6520696e20746865206675747572650000000000000000000000000000000000602082015250565b600062000951602f836200071a565b91506200095e82620008f3565b604082019050919050565b60006020820190508181036000830152620009848162000942565b9050919050565b7f546f6b656e4469737472696275746f723a2073746172742073686f756c64206260008201527f65206265666f726520656e640000000000000000000000000000000000000000602082015250565b6000620009e9602c836200071a565b9150620009f6826200098b565b604082019050919050565b6000602082019050818103600083015262000a1c81620009da565b9050919050565b7f546f6b656e4469737472696275746f723a207a65726f2064656c65676174652060008201527f746f000000000000000000000000000000000000000000000000000000000000602082015250565b600062000a816022836200071a565b915062000a8e8262000a23565b604082019050919050565b6000602082019050818103600083015262000ab48162000a72565b9050919050565b62000ac68162000574565b82525050565b600060208201905062000ae3600083018462000abb565b92915050565b7f546f6b656e4469737472696275746f723a207a65726f2073776565702072656360008201527f6569766572206164647265737300000000000000000000000000000000000000602082015250565b600062000b47602d836200071a565b915062000b548262000ae9565b604082019050919050565b6000602082019050818103600083015262000b7a8162000b38565b9050919050565b60805160a05160c0516120c662000bf7600039600081816103c001528181610675015261070201526000818161069f015261095e0152600081816102920152818161042501528181610504015281816108300152818161099e01528181610a4b01528181610dd60152610f7c01526120c66000f3fe608060405234801561001057600080fd5b50600436106100f55760003560e01c806378e2b59411610097578063b438abde11610066578063b438abde14610214578063f2fde38b14610230578063f6e0df9f1461024c578063fc0c546a1461026a576100f5565b806378e2b5941461018e57806384d24226146101aa5780638da5cb5b146101da578063ae373c1b146101f8576100f5565b80634838ed19116100d35780634838ed191461013e5780634e71d92d1461015c57806358c13b7e14610166578063715018a614610184576100f5565b80632e1a7d4d146100fa57806335faa416146101165780633da082a014610120575b600080fd5b610114600480360381019061010f919061121e565b610288565b005b61011e6103be565b005b610128610673565b604051610135919061125a565b60405180910390f35b610146610697565b604051610153919061125a565b60405180910390f35b61016461069d565b005b61016e61095c565b60405161017b919061125a565b60405180910390f35b61018c610980565b005b6101a860048036038101906101a39190611342565b610994565b005b6101c460048036038101906101bf91906113bd565b610b40565b6040516101d1919061125a565b60405180910390f35b6101e2610b58565b6040516101ef91906113f9565b60405180910390f35b610212600480360381019061020d91906114cf565b610b81565b005b61022e6004803603810190610229919061158e565b610ebd565b005b61024a600480360381019061024591906113bd565b610ed1565b005b610254610f54565b60405161026191906115ca565b60405180910390f35b610272610f7a565b60405161027f9190611644565b60405180910390f35b610290610f9e565b7f000000000000000000000000000000000000000000000000000000000000000073ffffffffffffffffffffffffffffffffffffffff1663a9059cbb33836040518363ffffffff1660e01b81526004016102eb92919061165f565b6020604051808303816000875af115801561030a573d6000803e3d6000fd5b505050506040513d601f19601f8201168201806040525081019061032e91906116c0565b61036d576040517f08c379a000000000000000000000000000000000000000000000000000000000815260040161036490611770565b60405180910390fd5b3373ffffffffffffffffffffffffffffffffffffffff167f7fcf532c15f0a6db0bd6d0e038bea71d30d808c7d98cb3bf7268a95bf5081b65826040516103b3919061125a565b60405180910390a250565b7f0000000000000000000000000000000000000000000000000000000000000000431015610421576040517f08c379a0000000000000000000000000000000000000000000000000000000008152600401610418906117dc565b60405180910390fd5b60007f000000000000000000000000000000000000000000000000000000000000000073ffffffffffffffffffffffffffffffffffffffff166370a08231306040518263ffffffff1660e01b815260040161047c91906113f9565b602060405180830381865afa158015610499573d6000803e3d6000fd5b505050506040513d601f19601f820116820180604052508101906104bd9190611811565b905060008103610502576040517f08c379a00000000000000000000000000000000000000000000000000000000081526004016104f99061188a565b60405180910390fd5b7f000000000000000000000000000000000000000000000000000000000000000073ffffffffffffffffffffffffffffffffffffffff1663a9059cbb600160009054906101000a900473ffffffffffffffffffffffffffffffffffffffff16836040518363ffffffff1660e01b815260040161057f9291906118cb565b6020604051808303816000875af115801561059e573d6000803e3d6000fd5b505050506040513d601f19601f820116820180604052508101906105c291906116c0565b610601576040517f08c379a00000000000000000000000000000000000000000000000000000000081526004016105f890611966565b60405180910390fd5b7f7f221332ee403570bf4d61630b58189ea566ff1635269001e9df6a890f413dd881604051610630919061125a565b60405180910390a1600160009054906101000a900473ffffffffffffffffffffffffffffffffffffffff1673ffffffffffffffffffffffffffffffffffffffff16ff5b7f000000000000000000000000000000000000000000000000000000000000000081565b60035481565b7f0000000000000000000000000000000000000000000000000000000000000000431015610700576040517f08c379a00000000000000000000000000000000000000000000000000000000081526004016106f7906119f8565b60405180910390fd5b7f00000000000000000000000000000000000000000000000000000000000000004310610762576040517f08c379a000000000000000000000000000000000000000000000000000000000815260040161075990611a64565b60405180910390fd5b6000600260003373ffffffffffffffffffffffffffffffffffffffff1673ffffffffffffffffffffffffffffffffffffffff168152602001908152602001600020549050600081116107e9576040517f08c379a00000000000000000000000000000000000000000000000000000000081526004016107e090611af6565b60405180910390fd5b6000600260003373ffffffffffffffffffffffffffffffffffffffff1673ffffffffffffffffffffffffffffffffffffffff168152602001908152602001600020819055507f000000000000000000000000000000000000000000000000000000000000000073ffffffffffffffffffffffffffffffffffffffff1663a9059cbb33836040518363ffffffff1660e01b815260040161088992919061165f565b6020604051808303816000875af11580156108a8573d6000803e3d6000fd5b505050506040513d601f19601f820116820180604052508101906108cc91906116c0565b61090b576040517f08c379a000000000000000000000000000000000000000000000000000000000815260040161090290611966565b60405180910390fd5b3373ffffffffffffffffffffffffffffffffffffffff167f8629b200ebe43db58ad688b85131d53251f3f3be4c14933b4641aeebacf1c08c82604051610951919061125a565b60405180910390a250565b7f000000000000000000000000000000000000000000000000000000000000000081565b610988610f9e565b610992600061101c565b565b61099c61069d565b7f000000000000000000000000000000000000000000000000000000000000000073ffffffffffffffffffffffffffffffffffffffff1663c3cda520866000878787876040518763ffffffff1660e01b8152600401610a0096959493929190611b6f565b600060405180830381600087803b158015610a1a57600080fd5b505af1158015610a2e573d6000803e3d6000fd5b505050508473ffffffffffffffffffffffffffffffffffffffff167f000000000000000000000000000000000000000000000000000000000000000073ffffffffffffffffffffffffffffffffffffffff1663587cde1e336040518263ffffffff1660e01b8152600401610aa291906113f9565b602060405180830381865afa158015610abf573d6000803e3d6000fd5b505050506040513d601f19601f82011682018060405250810190610ae39190611be5565b73ffffffffffffffffffffffffffffffffffffffff1614610b39576040517f08c379a0000000000000000000000000000000000000000000000000000000008152600401610b3090611c84565b60405180910390fd5b5050505050565b60026020528060005260406000206000915090505481565b60008060009054906101000a900473ffffffffffffffffffffffffffffffffffffffff16905090565b610b89610f9e565b818190508484905014610bd1576040517f08c379a0000000000000000000000000000000000000000000000000000000008152600401610bc890611d16565b60405180910390fd5b6000600354905060005b85859050811015610dd257600060026000888885818110610bff57610bfe611d36565b5b9050602002016020810190610c1491906113bd565b73ffffffffffffffffffffffffffffffffffffffff1673ffffffffffffffffffffffffffffffffffffffff1681526020019081526020016000205414610c8f576040517f08c379a0000000000000000000000000000000000000000000000000000000008152600401610c8690611dd7565b60405180910390fd5b838382818110610ca257610ca1611d36565b5b9050602002013560026000888885818110610cc057610cbf611d36565b5b9050602002016020810190610cd591906113bd565b73ffffffffffffffffffffffffffffffffffffffff1673ffffffffffffffffffffffffffffffffffffffff16815260200190815260200160002081905550858582818110610d2657610d25611d36565b5b9050602002016020810190610d3b91906113bd565b73ffffffffffffffffffffffffffffffffffffffff167f87aeeb9eda09a064caef63d00f62c15063631980bfc422ad7dd30c8a79f0cbb7858584818110610d8557610d84611d36565b5b90506020020135604051610d99919061125a565b60405180910390a2838382818110610db457610db3611d36565b5b90506020020135820191508080610dca90611e26565b915050610bdb565b50807f000000000000000000000000000000000000000000000000000000000000000073ffffffffffffffffffffffffffffffffffffffff166370a08231306040518263ffffffff1660e01b8152600401610e2d91906113f9565b602060405180830381865afa158015610e4a573d6000803e3d6000fd5b505050506040513d601f19601f82011682018060405250810190610e6e9190611811565b1015610eaf576040517f08c379a0000000000000000000000000000000000000000000000000000000008152600401610ea690611ee0565b60405180910390fd5b806003819055505050505050565b610ec5610f9e565b610ece816110e0565b50565b610ed9610f9e565b600073ffffffffffffffffffffffffffffffffffffffff168173ffffffffffffffffffffffffffffffffffffffff1603610f48576040517f08c379a0000000000000000000000000000000000000000000000000000000008152600401610f3f90611f72565b60405180910390fd5b610f518161101c565b50565b600160009054906101000a900473ffffffffffffffffffffffffffffffffffffffff1681565b7f000000000000000000000000000000000000000000000000000000000000000081565b610fa66111d6565b73ffffffffffffffffffffffffffffffffffffffff16610fc4610b58565b73ffffffffffffffffffffffffffffffffffffffff161461101a576040517f08c379a000000000000000000000000000000000000000000000000000000000815260040161101190611fde565b60405180910390fd5b565b60008060009054906101000a900473ffffffffffffffffffffffffffffffffffffffff169050816000806101000a81548173ffffffffffffffffffffffffffffffffffffffff021916908373ffffffffffffffffffffffffffffffffffffffff1602179055508173ffffffffffffffffffffffffffffffffffffffff168173ffffffffffffffffffffffffffffffffffffffff167f8be0079c531659141344cd1fd0a4f28419497f9722a3daafe3b4186f6b6457e060405160405180910390a35050565b600073ffffffffffffffffffffffffffffffffffffffff168173ffffffffffffffffffffffffffffffffffffffff160361114f576040517f08c379a000000000000000000000000000000000000000000000000000000000815260040161114690612070565b60405180910390fd5b80600160006101000a81548173ffffffffffffffffffffffffffffffffffffffff021916908373ffffffffffffffffffffffffffffffffffffffff1602179055508073ffffffffffffffffffffffffffffffffffffffff167fbea8251f76064f657f2a744bf08a1b5700486d06eb94922162892eb022d95ef660405160405180910390a250565b600033905090565b600080fd5b600080fd5b6000819050919050565b6111fb816111e8565b811461120657600080fd5b50565b600081359050611218816111f2565b92915050565b600060208284031215611234576112336111de565b5b600061124284828501611209565b91505092915050565b611254816111e8565b82525050565b600060208201905061126f600083018461124b565b92915050565b600073ffffffffffffffffffffffffffffffffffffffff82169050919050565b60006112a082611275565b9050919050565b6112b081611295565b81146112bb57600080fd5b50565b6000813590506112cd816112a7565b92915050565b600060ff82169050919050565b6112e9816112d3565b81146112f457600080fd5b50565b600081359050611306816112e0565b92915050565b6000819050919050565b61131f8161130c565b811461132a57600080fd5b50565b60008135905061133c81611316565b92915050565b600080600080600060a0868803121561135e5761135d6111de565b5b600061136c888289016112be565b955050602061137d88828901611209565b945050604061138e888289016112f7565b935050606061139f8882890161132d565b92505060806113b08882890161132d565b9150509295509295909350565b6000602082840312156113d3576113d26111de565b5b60006113e1848285016112be565b91505092915050565b6113f381611295565b82525050565b600060208201905061140e60008301846113ea565b92915050565b600080fd5b600080fd5b600080fd5b60008083601f84011261143957611438611414565b5b8235905067ffffffffffffffff81111561145657611455611419565b5b6020830191508360208202830111156114725761147161141e565b5b9250929050565b60008083601f84011261148f5761148e611414565b5b8235905067ffffffffffffffff8111156114ac576114ab611419565b5b6020830191508360208202830111156114c8576114c761141e565b5b9250929050565b600080600080604085870312156114e9576114e86111de565b5b600085013567ffffffffffffffff811115611507576115066111e3565b5b61151387828801611423565b9450945050602085013567ffffffffffffffff811115611536576115356111e3565b5b61154287828801611479565b925092505092959194509250565b600061155b82611275565b9050919050565b61156b81611550565b811461157657600080fd5b50565b60008135905061158881611562565b92915050565b6000602082840312156115a4576115a36111de565b5b60006115b284828501611579565b91505092915050565b6115c481611550565b82525050565b60006020820190506115df60008301846115bb565b92915050565b6000819050919050565b600061160a61160561160084611275565b6115e5565b611275565b9050919050565b600061161c826115ef565b9050919050565b600061162e82611611565b9050919050565b61163e81611623565b82525050565b60006020820190506116596000830184611635565b92915050565b600060408201905061167460008301856113ea565b611681602083018461124b565b9392505050565b60008115159050919050565b61169d81611688565b81146116a857600080fd5b50565b6000815190506116ba81611694565b92915050565b6000602082840312156116d6576116d56111de565b5b60006116e4848285016116ab565b91505092915050565b600082825260208201905092915050565b7f546f6b656e4469737472696275746f723a206661696c207472616e736665722060008201527f746f6b656e000000000000000000000000000000000000000000000000000000602082015250565b600061175a6025836116ed565b9150611765826116fe565b604082019050919050565b600060208201905081810360008301526117898161174d565b9050919050565b7f546f6b656e4469737472696275746f723a206e6f7420656e6465640000000000600082015250565b60006117c6601b836116ed565b91506117d182611790565b602082019050919050565b600060208201905081810360008301526117f5816117b9565b9050919050565b60008151905061180b816111f2565b92915050565b600060208284031215611827576118266111de565b5b6000611835848285016117fc565b91505092915050565b7f546f6b656e4469737472696275746f723a206e6f206c6566746f766572730000600082015250565b6000611874601e836116ed565b915061187f8261183e565b602082019050919050565b600060208201905081810360008301526118a381611867565b9050919050565b60006118b582611611565b9050919050565b6118c5816118aa565b82525050565b60006040820190506118e060008301856118bc565b6118ed602083018461124b565b9392505050565b7f546f6b656e4469737472696275746f723a206661696c20746f6b656e2074726160008201527f6e73666572000000000000000000000000000000000000000000000000000000602082015250565b60006119506025836116ed565b915061195b826118f4565b604082019050919050565b6000602082019050818103600083015261197f81611943565b9050919050565b7f546f6b656e4469737472696275746f723a20636c61696d206e6f74207374617260008201527f7465640000000000000000000000000000000000000000000000000000000000602082015250565b60006119e26023836116ed565b91506119ed82611986565b604082019050919050565b60006020820190508181036000830152611a11816119d5565b9050919050565b7f546f6b656e4469737472696275746f723a20636c61696d20656e646564000000600082015250565b6000611a4e601d836116ed565b9150611a5982611a18565b602082019050919050565b60006020820190508181036000830152611a7d81611a41565b9050919050565b7f546f6b656e4469737472696275746f723a206e6f7468696e6720746f20636c6160008201527f696d000000000000000000000000000000000000000000000000000000000000602082015250565b6000611ae06022836116ed565b9150611aeb82611a84565b604082019050919050565b60006020820190508181036000830152611b0f81611ad3565b9050919050565b6000819050919050565b6000611b3b611b36611b3184611b16565b6115e5565b6111e8565b9050919050565b611b4b81611b20565b82525050565b611b5a816112d3565b82525050565b611b698161130c565b82525050565b600060c082019050611b8460008301896113ea565b611b916020830188611b42565b611b9e604083018761124b565b611bab6060830186611b51565b611bb86080830185611b60565b611bc560a0830184611b60565b979650505050505050565b600081519050611bdf816112a7565b92915050565b600060208284031215611bfb57611bfa6111de565b5b6000611c0984828501611bd0565b91505092915050565b7f546f6b656e4469737472696275746f723a2064656c6567617465206661696c6560008201527f6400000000000000000000000000000000000000000000000000000000000000602082015250565b6000611c6e6021836116ed565b9150611c7982611c12565b604082019050919050565b60006020820190508181036000830152611c9d81611c61565b9050919050565b7f546f6b656e4469737472696275746f723a20696e76616c69642061727261792060008201527f6c656e6774680000000000000000000000000000000000000000000000000000602082015250565b6000611d006026836116ed565b9150611d0b82611ca4565b604082019050919050565b60006020820190508181036000830152611d2f81611cf3565b9050919050565b7f4e487b7100000000000000000000000000000000000000000000000000000000600052603260045260246000fd5b7f546f6b656e4469737472696275746f723a20726563697069656e7420616c726560008201527f6164792073657400000000000000000000000000000000000000000000000000602082015250565b6000611dc16027836116ed565b9150611dcc82611d65565b604082019050919050565b60006020820190508181036000830152611df081611db4565b9050919050565b7f4e487b7100000000000000000000000000000000000000000000000000000000600052601160045260246000fd5b6000611e31826111e8565b91507fffffffffffffffffffffffffffffffffffffffffffffffffffffffffffffffff8203611e6357611e62611df7565b5b600182019050919050565b7f546f6b656e4469737472696275746f723a206e6f7420656e6f7567682062616c60008201527f616e636500000000000000000000000000000000000000000000000000000000602082015250565b6000611eca6024836116ed565b9150611ed582611e6e565b604082019050919050565b60006020820190508181036000830152611ef981611ebd565b9050919050565b7f4f776e61626c653a206e6577206f776e657220697320746865207a65726f206160008201527f6464726573730000000000000000000000000000000000000000000000000000602082015250565b6000611f5c6026836116ed565b9150611f6782611f00565b604082019050919050565b60006020820190508181036000830152611f8b81611f4f565b9050919050565b7f4f776e61626c653a2063616c6c6572206973206e6f7420746865206f776e6572600082015250565b6000611fc86020836116ed565b9150611fd382611f92565b602082019050919050565b60006020820190508181036000830152611ff781611fbb565b9050919050565b7f546f6b656e4469737472696275746f723a207a65726f2073776565702072656360008201527f6569766572206164647265737300000000000000000000000000000000000000602082015250565b600061205a602d836116ed565b915061206582611ffe565b604082019050919050565b600060208201905081810360008301526120898161204d565b905091905056fea2646970667358221220ac9c8e56af6e41e895dfcab3cdfe10e59ab57d92dadd566568a665bff9971bc764736f6c63430008100033",
  "linkReferences": {},
  "deployedLinkReferences": {}
}